8=FIX.4.4|9=88|35=A|34=1|49=LOADRUNNER_CLIENT|52=20251005-05:20:20.922|56=FIX_SERVER|98=0|108=60|141=Y|10=096|
8=FIX.4.4|9=88|35=A|34=1|49=FIX_SERVER|52=20251005-05:20:21.031|56=LOADRUNNER_CLIENT|98=0|108=60|141=Y|10=088|
8=FIX.4.4|9=182|35=D|34=2|49=LOADRUNNER_CLIENT|52=20251005-05:20:22.659|56=FIX_SERVER|1=TEST_ACCOUNT|11=LR_VU-1_1_1759641622388|21=1|38=100|40=2|44=150.99|54=1|55=AAPL|59=0|60=20251005-01:20:22.601|10=163|
8=FIX.4.4|9=208|35=8|34=2|49=FIX_SERVER|52=20251005-05:20:22.707|56=LOADRUNNER_CLIENT|6=150.5|11=LR_VU-1_1_1759641622388|14=100|17=EXEC_1759641622707|31=150.5|32=100|37=SRV_1759641622707|38=100|39=2|54=1|55=AAPL|150=2|151=0|10=044|
8=FIX.4.4|9=182|35=D|34=3|49=LOADRUNNER_CLIENT|52=20251005-05:20:28.096|56=FIX_SERVER|1=TEST_ACCOUNT|11=LR_VU-1_2_1759641627825|21=1|38=100|40=2|44=150.99|54=1|55=AAPL|59=0|60=20251005-01:20:28.032|10=171|
8=FIX.4.4|9=208|35=8|34=3|49=FIX_SERVER|52=20251005-05:20:28.097|56=LOADRUNNER_CLIENT|6=150.5|11=LR_VU-1_2_1759641627825|14=100|17=EXEC_1759641628097|31=150.5|32=100|37=SRV_1759641628097|38=100|39=2|54=1|55=AAPL|150=2|151=0|10=071|
8=FIX.4.4|9=70|35=5|34=4|49=LOADRUNNER_CLIENT|52=20251005-05:20:28.906|56=FIX_SERVER|10=015|
8=FIX.4.4|9=70|35=5|34=4|49=FIX_SERVER|52=20251005-05:20:28.906|56=LOADRUNNER_CLIENT|10=015|
